{
  "_format": "hh-sol-artifact-1",
  "contractName": "WavePortal",
  "sourceName": "contracts/WavePortal.sol",
  "abi": [
    {
      "inputs": [],
      "stateMutability": "payable",
      "type": "constructor"
    },
    {
      "anonymous": false,
      "inputs": [
        {
          "indexed": true,
          "internalType": "address",
          "name": "from",
          "type": "address"
        },
        {
          "indexed": false,
          "internalType": "uint256",
          "name": "timestamp",
          "type": "uint256"
        },
        {
          "indexed": false,
          "internalType": "string",
          "name": "message",
          "type": "string"
        }
      ],
      "name": "NewCookies",
      "type": "event"
    },
    {
      "inputs": [],
      "name": "getAllCookies",
      "outputs": [
        {
          "components": [
            {
              "internalType": "address",
              "name": "giver",
              "type": "address"
            },
            {
              "internalType": "string",
              "name": "message",
              "type": "string"
            },
            {
              "internalType": "uint256",
              "name": "timestamp",
              "type": "uint256"
            }
          ],
          "internalType": "struct WavePortal.Cookies[]",
          "name": "",
          "type": "tuple[]"
        }
      ],
      "stateMutability": "view",
      "type": "function"
    },
    {
      "inputs": [],
      "name": "getTotalCookies",
      "outputs": [
        {
          "internalType": "uint256",
          "name": "",
          "type": "uint256"
        }
      ],
      "stateMutability": "view",
      "type": "function"
    },
    {
      "inputs": [
        {
          "internalType": "string",
          "name": "_message",
          "type": "string"
        }
      ],
      "name": "giveCookies",
      "outputs": [],
      "stateMutability": "nonpayable",
      "type": "function"
    },
    {
      "inputs": [
        {
          "internalType": "address",
          "name": "",
          "type": "address"
        }
      ],
      "name": "lastSentCookie",
      "outputs": [
        {
          "internalType": "uint256",
          "name": "",
          "type": "uint256"
        }
      ],
      "stateMutability": "view",
      "type": "function"
    }
  ],
  "bytecode": "0x6080604052620000336040518060600160405280603e8152602001620013e2603e91396200003960201b620006881760201c565b620001cd565b620000d98160405160240162000050919062000146565b6040516020818303038152906040527f41304fac000000000000000000000000000000000000000000000000000000007bffffffffffffffffffffffffffffffffffffffffffffffffffffffff19166020820180517bffffffffffffffffffffffffffffffffffffffffffffffffffffffff8381831617835250505050620000dc60201b60201c565b50565b60008151905060006a636f6e736f6c652e6c6f679050602083016000808483855afa5050505050565b600062000112826200016a565b6200011e818562000175565b93506200013081856020860162000186565b6200013b81620001bc565b840191505092915050565b6000602082019050818103600083015262000162818462000105565b905092915050565b600081519050919050565b600082825260208201905092915050565b60005b83811015620001a657808201518184015260208101905062000189565b83811115620001b6576000848401525b50505050565b6000601f19601f8301169050919050565b61120580620001dd6000396000f3fe608060405234801561001057600080fd5b506004361061004c5760003560e01c8063284bf88414610051578063d51cba161461006f578063d68e970f1461008b578063e1c0eecc146100bb575b600080fd5b6100596100d9565b6040516100669190610d38565b60405180910390f35b610089600480360381019061008491906109cb565b610124565b005b6100a560048036038101906100a091906109a2565b61051f565b6040516100b29190610d38565b60405180910390f35b6100c3610537565b6040516100d09190610c34565b60405180910390f35b600061011c6040518060400160405280601e81526020017f5765206861766520746f74616c206f6620256420636f6f6b6965287329210000815250600054610721565b600054905090565b426078600360003373ffffffffffffffffffffffffffffffffffffffff1673ffffffffffffffffffffffffffffffffffffffff168152602001908152602001600020546101719190610e4a565b106101b1576040517f08c379a00000000000000000000000000000000000000000000000000000000081526004016101a890610cd8565b60405180910390fd5b42600360003373ffffffffffffffffffffffffffffffffffffffff1673ffffffffffffffffffffffffffffffffffffffff1681526020019081526020016000208190555060008081548092919061020790610f81565b919050555061024b6040518060400160405280601a81526020017f25732068617320676976656e20796f75206120636f6f6b696521000000000000815250336107bd565b600260405180606001604052803373ffffffffffffffffffffffffffffffffffffffff16815260200183815260200142815250908060018154018082558091505060019003906000526020600020906003020160009091909190915060008201518160000160006101000a81548173ffffffffffffffffffffffffffffffffffffffff021916908373ffffffffffffffffffffffffffffffffffffffff160217905550602082015181600101908051906020019061030a929190610882565b5060408201518160020155505060006064600154424461032a9190610e4a565b6103349190610e4a565b61033e9190610fca565b905061037f6040518060400160405280601681526020017f52616e646f6d20232067656e6572617465643a2025730000000000000000000081525082610721565b80600181905550601e8110156104cb576103ce6040518060400160405280600781526020017f257320776f6e2100000000000000000000000000000000000000000000000000815250336107bd565b6000655af3107a400090504781111561041c576040517f08c379a000000000000000000000000000000000000000000000000000000000815260040161041390610cf8565b60405180910390fd5b60003373ffffffffffffffffffffffffffffffffffffffff168260405161044290610c1f565b60006040518083038185875af1925050503d806000811461047f576040519150601f19603f3d011682016040523d82523d6000602084013e610484565b606091505b50509050806104c8576040517f08c379a00000000000000000000000000000000000000000000000000000000081526004016104bf90610d18565b60405180910390fd5b50505b3373ffffffffffffffffffffffffffffffffffffffff167f6d4daa4926399df34b63e13fad1bb97267493248911cffae8296851913be61d84284604051610513929190610d53565b60405180910390a25050565b60036020528060005260406000206000915090505481565b60606002805480602002602001604051908101604052809291908181526020016000905b8282101561067f57838290600052602060002090600302016040518060600160405290816000820160009054906101000a900473ffffffffffffffffffffffffffffffffffffffff1673ffffffffffffffffffffffffffffffffffffffff1673ffffffffffffffffffffffffffffffffffffffff1681526020016001820180546105e490610f1e565b80601f016020809104026020016040519081016040528092919081815260200182805461061090610f1e565b801561065d5780601f106106325761010080835404028352916020019161065d565b820191906000526020600020905b81548152906001019060200180831161064057829003601f168201915b505050505081526020016002820154815250508152602001906001019061055b565b50505050905090565b61071e8160405160240161069c9190610c56565b6040516020818303038152906040527f41304fac000000000000000000000000000000000000000000000000000000007bffffffffffffffffffffffffffffffffffffffffffffffffffffffff19166020820180517bffffffffffffffffffffffffffffffffffffffffffffffffffffffff8381831617835250505050610859565b50565b6107b98282604051602401610737929190610ca8565b6040516020818303038152906040527f9710a9d0000000000000000000000000000000000000000000000000000000007bffffffffffffffffffffffffffffffffffffffffffffffffffffffff19166020820180517bffffffffffffffffffffffffffffffffffffffffffffffffffffffff8381831617835250505050610859565b5050565b61085582826040516024016107d3929190610c78565b6040516020818303038152906040527f319af333000000000000000000000000000000000000000000000000000000007bffffffffffffffffffffffffffffffffffffffffffffffffffffffff19166020820180517bffffffffffffffffffffffffffffffffffffffffffffffffffffffff8381831617835250505050610859565b5050565b60008151905060006a636f6e736f6c652e6c6f679050602083016000808483855afa5050505050565b82805461088e90610f1e565b90600052602060002090601f0160209004810192826108b057600085556108f7565b82601f106108c957805160ff19168380011785556108f7565b828001600101855582156108f7579182015b828111156108f65782518255916020019190600101906108db565b5b5090506109049190610908565b5090565b5b80821115610921576000816000905550600101610909565b5090565b600061093861093384610da8565b610d83565b90508281526020810184848401111561095057600080fd5b61095b848285610edc565b509392505050565b600081359050610972816111b8565b92915050565b600082601f83011261098957600080fd5b8135610999848260208601610925565b91505092915050565b6000602082840312156109b457600080fd5b60006109c284828501610963565b91505092915050565b6000602082840312156109dd57600080fd5b600082013567ffffffffffffffff8111156109f757600080fd5b610a0384828501610978565b91505092915050565b6000610a188383610bb1565b905092915050565b610a2981610ea0565b82525050565b610a3881610ea0565b82525050565b6000610a4982610de9565b610a538185610e0c565b935083602082028501610a6585610dd9565b8060005b85811015610aa15784840389528151610a828582610a0c565b9450610a8d83610dff565b925060208a01995050600181019050610a69565b50829750879550505050505092915050565b6000610abe82610df4565b610ac88185610e28565b9350610ad8818560208601610eeb565b610ae1816110b7565b840191505092915050565b6000610af782610df4565b610b018185610e39565b9350610b11818560208601610eeb565b610b1a816110b7565b840191505092915050565b6000610b32602983610e39565b9150610b3d826110c8565b604082019050919050565b6000610b55603483610e39565b9150610b6082611117565b604082019050919050565b6000610b78602783610e39565b9150610b8382611166565b604082019050919050565b6000610b9b600083610e1d565b9150610ba6826111b5565b600082019050919050565b6000606083016000830151610bc96000860182610a20565b5060208301518482036020860152610be18282610ab3565b9150506040830151610bf66040860182610c01565b508091505092915050565b610c0a81610ed2565b82525050565b610c1981610ed2565b82525050565b6000610c2a82610b8e565b9150819050919050565b60006020820190508181036000830152610c4e8184610a3e565b905092915050565b60006020820190508181036000830152610c708184610aec565b905092915050565b60006040820190508181036000830152610c928185610aec565b9050610ca16020830184610a2f565b9392505050565b60006040820190508181036000830152610cc28185610aec565b9050610cd16020830184610c10565b9392505050565b60006020820190508181036000830152610cf181610b25565b9050919050565b60006020820190508181036000830152610d1181610b48565b9050919050565b60006020820190508181036000830152610d3181610b6b565b9050919050565b6000602082019050610d4d6000830184610c10565b92915050565b6000604082019050610d686000830185610c10565b8181036020830152610d7a8184610aec565b90509392505050565b6000610d8d610d9e565b9050610d998282610f50565b919050565b6000604051905090565b600067ffffffffffffffff821115610dc357610dc2611088565b5b610dcc826110b7565b9050602081019050919050565b6000819050602082019050919050565b600081519050919050565b600081519050919050565b6000602082019050919050565b600082825260208201905092915050565b600081905092915050565b600082825260208201905092915050565b600082825260208201905092915050565b6000610e5582610ed2565b9150610e6083610ed2565b9250827fffffffffffffffffffffffffffffffffffffffffffffffffffffffffffffffff03821115610e9557610e94610ffb565b5b828201905092915050565b6000610eab82610eb2565b9050919050565b600073ffffffffffffffffffffffffffffffffffffffff82169050919050565b6000819050919050565b82818337600083830152505050565b60005b83811015610f09578082015181840152602081019050610eee565b83811115610f18576000848401525b50505050565b60006002820490506001821680610f3657607f821691505b60208210811415610f4a57610f49611059565b5b50919050565b610f59826110b7565b810181811067ffffffffffffffff82111715610f7857610f77611088565b5b80604052505050565b6000610f8c82610ed2565b91507fffffffffffffffffffffffffffffffffffffffffffffffffffffffffffffffff821415610fbf57610fbe610ffb565b5b600182019050919050565b6000610fd582610ed2565b9150610fe083610ed2565b925082610ff057610fef61102a565b5b828206905092915050565b7f4e487b7100000000000000000000000000000000000000000000000000000000600052601160045260246000fd5b7f4e487b7100000000000000000000000000000000000000000000000000000000600052601260045260246000fd5b7f4e487b7100000000000000000000000000000000000000000000000000000000600052602260045260246000fd5b7f4e487b7100000000000000000000000000000000000000000000000000000000600052604160045260246000fd5b6000601f19601f8301169050919050565b7f4d75737420776169742032206d696e75746573206265666f72652073656e646960008201527f6e6720616761696e2e0000000000000000000000000000000000000000000000602082015250565b7f547279696e6720746f207769746864726177206d6f7265206d6f6e657920746860008201527f616e2074686520636f6e7472616374206861732e000000000000000000000000602082015250565b7f4661696c656420746f207769746864726177206d6f6e65792066726f6d20636f60008201527f6e74726163742e00000000000000000000000000000000000000000000000000602082015250565b50565b6111c181610ea0565b81146111cc57600080fd5b5056fea2646970667358221220b3fe0e339d71d5c5eeba2a1ec1b3a9a6ddf62e41cfdeaa2a5ebf78e4294bef3564736f6c634300080400334865792c206275696c64696e67206d7920666972737420646170702077697468206275696c6473706163652069732070726574747920636f6f6c21203b29",
  "linkReferences": {},
  "deployedLinkReferences": {}
}